:020000040800F2
:10000000007C002045010008B70D0008E30C000843
:10001000B50D000809030008CD0F0008000000001E
:10002000000000000000000000000000F90D0008C2
:100030000B03000800000000B3010008FB0D0008DE
:100040005F0100085F0100085F0100085F01000810
:100050005F0100085F0100085F0100085F01000800
:100060005F0100085F0100085F0100085F010008F0
:100070005F0100085F0100085F0100085F010008E0
:100080005F0100085F0100085F0100085F010008D0
:100090005F0100085F0100085F0100085F010008C0
:1000A0005F0100085F0100085F0100085F010008B0
:1000B0005F0100085F0100085F0100085F010008A0
:1000C0005F0100085F0100085F0100085F01000890
:1000D0005F0100085F0100085F0100085F01000880
:1000E0005F0100085F0100085F0100085F01000870
:1000F0005F0100085F0100085F0100085F01000860
:100100005F0100085F0100085F0100085F0100084F
:100110005F0100085F0100085F0100085F0100083F
:100120005F0100085F0100085F0100085F0100082F
:10013000DFF80CD000F0D6F800480047391400086A
:10014000007C00200648804706480047FEE7FEE79F
:10015000FEE7FEE7FEE7FEE7FEE7FEE7FEE7FEE777
:10016000690E00083101000872B6704762B6704728
:10017000EFF3108072B6704780F310887047B0FAC2
:1001800080F0704717484FF0FF010170002080F3A6
:10019000098815484FF08051016062B6FEE71248A9
:1001A0004FF08051016070470F484FF0805101605F
:1001B000704772B6EFF3098028B1203880E8F00F5D
:1001C0000A4909680860094809490A680260106814
:1001D00090E8F00F203080F309884EF0040E62B6EC
:1001E000704700BF22ED00E004ED00E02000002099
:1001F000240000202DE9F05F0546002092469B4632
:1002000088460646814640241BE02846414647462C
:10021000224600F020F853465A46C01A914110D3A6
:1002200011461846224600F04EF82D1A67EB0108D9
:100230004F4622460120002100F045F817EB000947
:100240004E41201EA4F10104DFDC484631462A4617
:100250004346BDE8F09F202A04DB203A21FA02F051
:100260000021704721FA02F3D040C2F120029140F0
:10027000084319467047D2B201E000F8012B491E2D
:10028000FBD270470022F6E710B513460A46044633
:100290001946FFF7F0FF204610BD30B50B4601466A
:1002A00000202022012409E021FA02F59D4205D315
:1002B00003FA02F5491B04FA02F52844151EA2F1BF
:1002C0000102F1DC30BD202A04DB203A00FA02F101
:1002D000002070479140C2F1200320FA03F3194334
:1002E00090407047064C074D06E0E06840F001037F
:1002F00094E8070098471034AC42F6D3FFF71CFF90
:10030000BC210008DC210008FEE7704770470000B0
:100310002DE9F84FDFF8C891002409F1040A0AF129
:10032000040B23460F270BF1040ED1E00125A54055
:1003300006EA0502AA4276D1DFF8A8C14E68A6EB0C
:100340000C0866452BD00DDC032E34D005DC36B30B
:10035000012E19D0022E2FD11BE0112E16D0122EF5
:100360002AD119E0B8F5881F19D006DCB8F5803F0E
:1003700015D0B8F5801F1FD111E0B8F5001F0ED0C1
:10038000B8F5041F18D10AE0CB6815E0CB681B1D37
:1003900012E0CB6808330FE0CB680C330CE08B68BD
:1003A0002BB1012B4FF0080303D0456104E0042377
:1003B00002E0056100E00023FF2A01D8064601E0C3
:1003C00000F104064FEA840501D9A5F12005D6F80D
:1003D000008007FA05FC28EA0C0803FA05F548EA4C
:1003E0000508C6F800804D68ED0070D53E4DAE6939
:1003F00046F00106AE61AD6924F0030605F0010583
:1004000000953A4D06EB050CDCF80850A607360FB0
:1004100007FA06F825EA0805DFF8D480404503D13D
:100420004FF0000825E052E0DFF8C880404502D1D7
:100430004FF001081DE0DFF8C080404502D14FF0C9
:10044000020816E0DFF8B480404502D14FF00308FF
:100450000FE0DFF8AC80404502D14FF0040808E01F
:10046000DFF8A080404502D14FF0050801E04FF0D1
:10047000060808FA06F848EA0508CCF808804D682E
:10048000D9F80060ED034D4601D5164300E09643D0
:100490002E604D68DAF80060AD03554601D516436D
:1004A00000E096432E604D68DBF80060ED025D468B
:1004B00001D5164300E096432E604D68DEF80060DB
:1004C000AD02754601D5164300E096432E60641CCC
:1004D0000A681646E2407FF429AFBDE8F88F0000B5
:1004E0000004014000001110001002400000014013
:1004F00000080140000C01400010014000140140C0
:1005000000180140001C01400AB101617047090454
:10051000FBE70000014880687047000000000020F1
:100520000248816802781144816070470000002011
:10053000074810B5016841F010010160032000F088
:1005400067F8002000F006F800F024F8002010BD45
:100550000020024070B50D4D04464FF47A712878A2
:10056000B1FBF0F00A490968B1FBF0F000F0DEFAE7
:1005700048B9102C07D200222146501E00F028F85E
:1005800000206C6070BD012070BD000000000020E4
:100590000C0000200C4808B5816941F0010181611F
:1005A000816901F001010091C16941F08051C1618F
:1005B000C06900F0805000900448416821F0E0617B
:1005C00041F08061416008BD001002400000014020
:1005D000F0B40E4B1B680C46C3F30223C3F10705AE
:1005E000042D00D90425191D072901D2002300E09C
:1005F000DB1E012606FA05F1491E214099409E4066
:10060000761E16403143F0BC00F0D6BB0CED00E086
:10061000064900F0070208684FF6FF03184040EA59
:100620000220034A10430860704700000CED00E010
:100630000000FA052DE9F0470F46050061D0434E52
:10064000306800F00700B84209D2306820F0070097
:1006500038433060306800F00700B84251D1286854
:100660003B4C810712D5400703D5606840F4E06039
:1006700060602878000703D5606840F460506060CF
:100680006068A96820F0F000084360602878C0071F
:1006900028D06868012810D02168022810D0890766
:1006A00000292EDA616821F0030101436160FFF740
:1006B00031FF804641F288390DE021688903EFE778
:1006C0008901EDE7FFF726FFA0EB0801494502D9B4
:1006D0000320BDE8F0876068696800F00C00B0EBAB
:1006E000810FEFD1306800F00700B8420BD93068B5
:1006F00020F0070038433060306800F00700B8424F
:1007000001D00120E5E72878400705D56068E96851
:1007100020F4E060084360602878000706D5606830
:10072000296920F4605040EAC100606000F038F8A8
:100730006168084AC1F30311515CC840064908606A
:1007400006480068FFF706FF0020C2E700200240CD
:1007500000100240382100080C0000200400002096
:100760000448054900684968044AC1F30221515C04
:10077000C84070470C0000200010024048210008CB
:100780000448054900684968044AC1F3C221515C24
:10079000C84070470C0000200010024048210008AB
:1007A00012A185B00FC98DE80F0014A0144A00688B
:1007B00004905168134801F00C03042B10D0082B4F
:1007C0000ED1C1F38343C9031DF803000AD5516854
:1007D00004AAC1F34041515C0A4A5043B0FBF1F016
:1007E00005B0704708494843FAE7000002030405D2
:1007F000060708090A0B0C0D0E0F1010010200006D
:100800000010024000127A0000093D002DE9F84F67
:10081000040070D02078C04DC00749D06868C0F38C
:100820008100012807D06868C0F38100022809D13F
:100830006868C00306D52868800339D56068002839
:10084000E7D035E06068B0F5803F0BD010B1B0F56F
:10085000A02F11D0286820F480302860286820F468
:10086000802002E0286840F480302860606890B101
:10087000FFF750FE06460AE0286840F48020286012
:10088000F0E700BFFFF746FE801B642873D8286896
:100890008003F7D50CE0FFF73DFE064605E000BFFC
:1008A000FFF738FE801B6428F0D828688003F7D44F
:1008B00020789A4E80074FF001094FF0000839D593
:1008C000686810F00C0F07D06868C0F38100022838
:1008D00009D16868C00306D42868800714D5206948
:1008E000012808D110E02069B0B1C6F80090FFF7E8
:1008F00011FE074605E00AE1FFF70CFEC01B0228C7
:10090000C4D828688007F7D52868616920F0F80006
:1009100040EAC10028600DE0C6F80080FFF7FAFD4C
:10092000074604E0FFF7F6FDC01B022823D828681D
:100930008007F7D4207800072CD57948A169D9B170
:10094000C0F80090FFF7E6FD074604E0FFF7E2FD80
:10095000C01B02280FD8686A8007F7D571484FF48A
:10096000FA510068B0FBF1F0009000BF0098411E02
:100970000091FAD20EE080E0C0F80080FFF7CAFDD7
:10098000074604E0FFF7C6FDC01B022875D8686A59
:100990008007F7D42078400760D5E8690027C000B9
:1009A00008D4E86940F08050E861E869012700F068
:1009B000805000905C480168C90513D401688346E3
:1009C00041F480710160FFF7A5FD824606E000BF9B
:1009D000FFF7A0FDA0EB0A0064284ED8DBF800006A
:1009E000C005F5D5E06801280AD008B1052813D064
:1009F000286A20F001002862286A20F0040002E042
:100A0000286A40F001002862E06841F2883B98B112
:100A1000FFF780FD82460BE0286A40F00400286260
:100A2000EEE700BFFFF776FDA0EB0A0159455AD863
:100A3000286A8007F6D50CE0FFF76CFD824605E0DA
:100A4000FFF768FDA0EB0A0159454CD8286A8007DA
:100A5000F6D41FB1E86920F08050E861E06988B3FE
:100A60006968C1F38101022944D00228C6F8608078
:100A700004D0FFF74FFD044638E034E0FFF74AFDAD
:100A8000074604E0FFF746FDC01B02282BD8286864
:100A90008001F7D4206AB0F5803F05D16868A1686D
:100AA00020F4003008436860D4E90801084369680D
:100AB00021F4741108436860C6F86090FFF72AFDBE
:100AC000044606E025E000BFFFF724FD001B0228D6
:100AD00009D828688001F7D51BE000BFFFF71AFD91
:100AE000001B022802D90320BDE8F88F2868800186
:100AF000F4D40EE00128F7D06868226A00F480314F
:100B0000914204D1616A00F47010884201D0012042
:100B1000EAE70020E8E7000000100240000042423F
:100B2000800442420C0000200070004010B5401EBE
:100B3000B0F1807F01D3012010BD4FF0E02460614F
:100B40000F21601700F038F90020A0610720206114
:100B5000002010BD70B5040004D094F839000025C1
:100B600010B106E0012070BD84F83850204600F036
:100B700023F8242084F839002068C16821F400514A
:100B8000C160204600F094F92068016921F4904189
:100B900001612068416921F02A0141612068C16832
:100BA00041F40051C160E563202084F8390084F8E5
:100BB0003A00002070BD000030B585B000240094DC
:100BC00001940294039400681449884224D1144883
:100BD000816941F480418161816901F4804104911E
:100BE000816941F00401816180690E4D00F00400CB
:100BF00004904FF4007000900220019003200390B5
:100C000069462846FFF784FB2815CDE900046946AC
:100C100028460294FFF77CFB05B030BD0038014048
:100C200000100240000801402DE9F843044690F806
:100C300039001F4616460D46202850D1A5B19EB159
:100C400094F8380001284AD0012084F838004FF089
:100C50000008C4F83C80212084F83900FFF75AFCD2
:100C6000A6848146E68426E00120BDE8F883E08C76
:100C7000401EE084A0684B46B0F5805F4FF0000254
:100C80004FF080012046009703D000F06DF9E8B9DD
:100C90000DE000F069F9C8B928882168C0F30800A0
:100CA0004860206908B16D1C05E0AD1C03E02168B7
:100CB00015F8010B4860E08C0028D8D14B46002283
:100CC00040212046009700F04FF908B10320CCE7FF
:100CD000202084F8390084F838800020C5E70220FD
:100CE000C3E7FEE72DE9F04186B0002420480094D8
:100CF000019402940394816941F01001816181693A
:100D000001F010010491816941F020018161816944
:100D100001F020010491816941F004018161806941
:100D2000144F00F004004FF480750490002229460F
:100D30003846FFF7E9FBDFF84080002204214046F7
:100D4000FFF7E2FB0095022601250396CDE9015449
:100D500069463846FFF7DCFA0420CDE90005CDE905
:100D6000024669464046FFF7D3FA06B0BDE8F08177
:100D70000010024000080140001401400C4810B56A
:100D80000A4901604FF4E1314160002181600C2289
:100D9000C160C0E904128161C161FFF7DBFE002878
:100DA00003D0BDE81040FFF7B1BA10BD00380140D4
:100DB000C8040020FEE770470907090E002806DA7C
:100DC00000F00F0000F1E02080F8141D704700F1E2
:100DD000E02080F8001470470907090E002806DAA1
:100DE00000F00F0000F1E02080F8141D704700F1C2
:100DF000E02080F800147047704710B5FFF790FBB3
:100E000000F076FF002807D000F034FF01F06EF903
:100E1000BDE8104000F03EBF10BD30B58FB02821B6
:100E20006846FFF72FFA14210AA8FFF72BFA0121D1
:100E30000804CDE900100024029402250491CDE9B4
:100E400007504FF4E01009906846FFF7DFFC0F20D1
:100E5000CDE90A056802CDE90C4002210AA80E94EA
:100E6000FFF7E8FB0FB030BD0D48016841F001010C
:100E7000016041680B4A1140416001680A4A114013
:100E80000160016821F480210160416821F4FE01C4
:100E900041604FF41F0181600449C003086070473E
:100EA000001002400000FFF8FFFFF6FE08ED00E032
:100EB0002DE9F041044600680169E26821F44051DF
:100EC000114301612169A0680843616908432168F1
:100ED000CA6841F20C639A430243CA6020684169C0
:100EE000A26921F44071114341611E4920686425C3
:100EF0003226884202D1FFF743FC01E0FFF730FCC5
:100F000000EBC00101EB001160686FF01807800072
:100F1000B1FBF0F2B2FBF5F2B1FBF0F37A4303EB75
:100F20008202B1FBF0F306EB0212B2FBF5F2B3FB67
:100F3000F5F302F0F00202EB0312B1FBF0F3B1FBA8
:100F4000F0F0B0FBF5F0784303EB800006EB001007
:100F5000B0FBF5F0216800F00F0010448860BDE898
:100F6000F0810000003801402DE9F0419846174615
:100F70000E460446069D1DE0681C1BD02DB1FFF7F0
:100F8000C9FAA0EB0800A84214D92068C16821F46E
:100F9000D071C1602068416921F0010141612020C8
:100FA00084F8390084F83A00002084F838000320DF
:100FB000BDE8F0812068006836EA000004D0002017
:100FC000B842D9D00020F3E70120F9E7FEE700009E
:100FD0000FB4054B10B503A9044A029800F028F895
:100FE00010BC5DF814FB00003D1300085800002001
:100FF00010B500F021FEC0F11F0010BD02E008C8CE
:10100000121F08C1002AFAD170477047002001E082
:1010100001C1121F002AFBD170475060C0E90021B6
:10102000086070475060C0E9002108607047000008
:101030002DE9FF4F8BB09A460F460546002606E085
:1010400025280BD052460D9990476D1C761C2878A8
:101050000028F5D10FB03046BDE8F08F0024A0463F
:101060000122604900E0044315F8013F203B02FAE9
:1010700003F00842F7D128782E2817D115F8010F70
:1010800044F004042A280ED06FF02F022878A0F133
:10109000300109290AD808EB880102EB410100EB75
:1010A00001086D1CF2E757F8048B6D1C287869283D
:1010B0003ED006DC0028CDD063280BD0642804D1B4
:1010C00036E0732810D075284BD052460D999047C2
:1010D000761C85E017F8040B8DF8000000208DF8D1
:1010E0000100E946012003E057F8049B4FF0FF3070
:1010F00061074FF0000401D40AE0641C44450DDA96
:101100008442FADB19F804100029F6D106E0641CC9
:101110008442FCDB19F804100029F8D1264404E0CD
:1011200019F8010B52460D999047641EF8D257E00A
:1011300001CF4FF00A0B002802DA40422D2102E0D5
:10114000210504D52B218DF82410012103E0E107AE
:1011500005D02021F7E70DF1200908910CE00021CE
:10116000F9E701CF4FF00A0BF9E75946FFF795F879
:1011700001F1300209F8012D0028F6D1ADEB09008C
:1011800000F1200B600701D44FF00108D84502DDC3
:10119000A8EB0B0000E000208046002406E009A830
:1011A0005246005D0D999047641C761C0898844255
:1011B000F5DB04E0302052460D999047761CB8F1DB
:1011C0000001A8F10108F5DC05E019F8010B524611
:1011D0000D999047761CBBF10001ABF1010BF4DCDB
:1011E0006D1C34E70928010010B50021044800F007
:1011F000CFF903480021BDE81040203000F0C8B905
:10120000582100087CB50446406801AA20F003007C
:10121000694600F031F9DDE900130B4800EBC1121B
:1012200002EB83056A6FC4E90220D4606C67012277
:10123000046902FA01F52C43046100EB81009A4035
:101240004169114341617CBD1866002010B5044618
:1012500000F002F8046010BD00F10801406820F0C1
:101260000300001F0844704710B5FFF761F9FFF74E
:10127000D4FDFFF737FDBDE81040FFF77FBDFEF757
:101280008EBF0000074810B5D0E9002306480021B2
:101290000068FEF7AFFF05490860BDE8104000F0A8
:1012A0000BB80000280000200C00002030000020B7
:1012B000FEF77ABFFEF766FF10B50446002000F087
:1012C000F0F92046BDE8104000F0DAB910B5029CF4
:1012D000234423F007034FF0807443F8044C43E9A0
:1012E00003204FF0123043F8100C4FF0033043F856
:1012F000140C4FF0023043F8180C421043F81C2D28
:10130000181F40F81C194FF0113181611101416122
:101310004FF009310161D100C1604FF007318160A8
:101320004FF0063141604FF0053140F8041991004B
:10133000016010BD002800D0FF20704713B5009851
:101340000A2806D147F23053012206A10648FFF7CA
:101350006BFC4FF6FF73012269460348FFF764FCFC
:1013600000981CBD0D000000C8040020FEE700002E
:101370001FB5074A074900231268096809208DE84C
:101380000F00054A05A1074800F060FD04B010BD3C
:1013900054210008502100086D13000869646C6531
:1013A00000000000600500200349884201D10120AF
:1013B0007047002070470000600500200248007858
:1013C000002800D00120704710000020024800785B
:1013D000002800D00120704711000020034909684F
:1013E000884201D101207047002070472000002072
:1013F0000D4810B50078002815D10C480078002859
:1014000011D100F01DFC044600F09AF9084908606B
:1014100008490968884201D0FFF731FF2046BDE83E
:10142000104000F00BBC10BD100000201100002087
:10143000240000202000002010B5FFF715FF06A0B3
:10144000FFF7C6FD00F096F800210A4800F0A0F86A
:1014500000F097F8002010BD57656C636F6D652034
:10146000746F2054656E63656E744F532074696E9B
:10147000790D0A001821000870B515460E4604467D
:10148000802805D2E117002004EB9171891006E055
:10149000FFF7AEFD411F0C4184F02001801F30603A
:1014A000296070BDF0B40C4A00252B469260C2E959
:1014B000032500BF02EB830402EBC3166561002421
:1014C00006EB8407641C7A67202CF9DB5B1C182B65
:1014D000F0DBF0BC00F090BC1866002070B5074D42
:1014E000002400BF05EB041005490060406000F0D7
:1014F0006BFC641C0A2CF5D370BD00008C720020BC
:101500005000002070B504460569D4E906100A268B
:10151000486001600020206195F840100A2905D03C
:10152000284600F073FD85F8406070BD687C217D21
:101530008842FAD0284600F069FD267570BD10B5C6
:101540000446FFF7DFFF2046BDE81040042100F00D
:1015500087B8000010B5411C08D000F044FC00BF63
:1015600000F0D0FCBDE81040FFF7E4BE4FF0FF30C4
:101570000146F5E710B500F065FBBDE81040FFF748
:10158000D9BE10B500F006FCBDE81040FFF7D2BE92
:101590007FB50D4604000FD0B4F9080000F086F8BE
:1015A00004F110010EC98DE80F00D4E900122B469A
:1015B000E06900F04BFC10B1002004B070BDE069A0
:1015C000FBE750F8041F814203D0303901D0487C3A
:1015D00070470A20704730B50B1D4A6806E0A2F13B
:1015E0003004457C647CA54202D312689A42F6D14D
:1015F00000F1300354685360C3E900242360416460
:10160000017C41F00201017430BDD0E90C124A6046
:101610001160416CFFF7DFBFD0E90C124A60116026
:1016200000214164017C21F002010174704710B572
:101630000446007C800704D584F848102046FFF754
:10164000EBFF207CC00702D0204600F097F9207CF9
:10165000400704D42046BDE8104000F02FB810BD6C
:1016600070B5024640680D46161D046805E029461F
:101670003038FFF7DCFF20462468B042F7D170BD58
:1016800010B5401EB0F1807F0AD24FF0E0246061B7
:101690000F216017FFF7A0FB0020A0610720206149
:1016A00010BD01464FF0FF30FFF796BB842803D0F2
:1016B000C0F10300C0B270470A207047044A417C61
:1016C0001268527C914201D100F01AB800F002B8C1
:1016D0002000002070B50546407C084901EBC0049D
:1016E0002168A14201D100F06DF805F130002146DA
:1016F0002268BDE87040FFF795BC00000805002097
:1017000070B50546407C074901EBC0042168A14241
:1017100001D100F057F8214605F13000BDE87040D6
:1017200000F055BB08050020044901EBC001086822
:10173000884201D1002070473038704708050020EA
:10174000034890F8541050F83100303870470000CA
:10175000080500200B480A2180F854105FF00001B2
:1017600000EBC102491C1260C9B252600A29F7D3CA
:1017700000210A4600EB8103491C1A6511F0FF01A4
:10178000F8D0704708050020054901EBC00001684A
:101790000968814201D10120704700207047000094
:1017A00008050020064901EBC0010868884205D001
:1017B000D0E9002353601A6000F009BB70470000B5
:1017C0000805002030B50A49420901EB820200F009
:1017D0001F04C4F11F050124136DAC40234313659E
:1017E00091F85420824201D981F8540030BD0000A4
:1017F0000805002070B5417C426B006B144C04EB73
:10180000C10342601060186898420BD1480904EB8C
:10181000800001F01F03C3F11F050123026DAB40DF
:101820009A43026594F8540088420FD10848002575
:10183000503002E02035EDB2001D01680029F9D0DA
:10184000084600F0F9F9284484F8540070BD0000FF
:101850000805002070B5064600F0F2F9054630464E
:10186000FFF762FF04000ED0FFF79EFD58B9304627
:10187000FFF78AFF38B9FFF7A9FD20B9206D38B10D
:10188000401E206504D02846BDE8704000F0D6B95F
:1018900009480068407CFFF785FF3046FFF744FFAA
:1018A000C16C09B9054909680165284600F0C6F907
:1018B000BDE87040FFF79CBD200000203C000020E8
:1018C00001244FF4FA652146641C03A0FFF780FB56
:1018D0002846FFF73FFEF6E7232323546869732069
:1018E0006973207461736B312C2025640D0A00002C
:1018F00001244FF47A752146641C03A0FFF768FBAE
:101900002846FFF727FEF6E72A2A2A54686973203B
:101910006973207461736B322C2025640D0A0000FA
:10192000002000F01FBB00F128018162C162083174
:101930000163416308318163C1630A2100F8401FDC
:1019400000210172416041618161704710B5044618
:1019500052EA03000ED0D04370EA03000CD02046B8
:10196000C4E9082300F044F8207C40F00100207412
:10197000002010BD642010BD652010BD2DE9F04190
:10198000044600F05DF9804604F1280000F024FAD6
:10199000F0B9A16AB1F128001AD0144A914217D0C7
:1019A000D4E908276FF001014D10D2EB0106D0E910
:1019B000083165EB0705F61A8D4104D39A18794171
:1019C000C0E9082104E06FF001014A10C0E90812E3
:1019D000D4E90A0141600860404600F02FF9207CFC
:1019E00020F001002074BDE8F081000034000020E8
:1019F0002DE9F05F00241746984681462646254685
:101A000000F01EF91F4AC9E908788346404692460D
:101A100011681AE0A1F12804D4E908329B196A413F
:101A2000B7EB030C70EB020C11D387EA030C80EACE
:101A300002085CEA080C05D199F811C094F81180ED
:101A4000C44504D309681E4615465145E2D1BA1B68
:101A500060EB0500C9E90820514507D034B1D4E94D
:101A60000853AA1A63EB0003C4E9082309F128000C
:101A70004A684860C0E9001210605846BDE8F05F4F
:101A800000F0DCB8340000202DE9F04106460C4699
:101A900000F0D6F817490746174DD1E900209219F2
:101AA0006041C1E900202868A8421DD050E9022108
:101AB0002838B31A74EB010304D30021C0E90811DC
:101AC00028680EE0921B61EB0401C0E908210BE0DD
:101AD00050E902122838114306D10221FFF7A7FD71
:101AE0002046A8420468F3D13846BDE8F04100F032
:101AF000A5B8000018000020340000200020704726
:101B00002DE9F041044600F09BF80646174BD4E956
:101B10000401D3E9002382185941DFF854C0C4E915
:101B200004210CF10805DCF8080008E0A0F1080326
:101B3000D3E90473D71B71EB030302D30068A842F7
:101B4000F4D104F1080142684160C1E9000211606A
:101B5000DCF80800884203D1D4E90401CCE9000193
:101B60003046BDE8F04100F069B8000018000020E0
:101B70004000002070B5044600F062F80E490546AA
:101B8000D4E902038A684360083A1860A24209D186
:101B900054F8080FA0420AD0083808D0D0E9042031
:101BA000C1E900202846BDE8704000F047B84FF07A
:101BB000FF30C1E90000F5E7400000202DE9F041C9
:101BC0001B4C1C4FD4E90020D7E90013521A98414E
:101BD0002BD300F095F8A468154E4FF00308083693
:101BE000256814E0D4E90212D7E90030083C591AFC
:101BF00090410ED32046FFF7BDFF208D02280CD068
:101C000084F82A80D4E9001088472C462D68B44215
:101C1000E8D1BDE8F04100F097B8D4E90801C4E983
:101C200004012046FFF76CFFECE7BDE8F0810000FF
:101C30004000002018000020FEF7A1BAFEF79CBA71
:101C4000FEF796BA10B5FFF71DFBFFF783FD4FF4C3
:101C5000C0410748FFF726FCFFF740FCFFF788FB71
:101C6000002803D1BDE81040FFF748BF10BD0000B9
:101C70001806002005480078012805D10449087895
:101C8000FA2801D2401C08707047000012000020A2
:101C900010000020114810B5007801281CD1FFF772
:101CA000CFFF04460E48017889B1491E11F0FF01AB
:101CB00001700CD10B48007848B9FFF741FD0A4983
:101CC00008600A490968884201D0FFF7F1FA204606
:101CD000BDE81040FFF7B2BF10BD000012000020A9
:101CE000100000201100002024000020200000200F
:101CF00002480078012800D0002070471200002020
:101D00000E4810B50078B0B90D480078012802D00F
:101D10004FF4FA7010BD0B4C2078FA2802D34FF420
:101D2000167010BDFFF78CFF2178491C2170FFF75A
:101D300085FF002010BD4FF4C87010BD10000020BA
:101D400012000020110000200F4810B50078B8B92B
:101D50000E480078012802D04FF4FA7010BD0C4CE8
:101D6000207850B1FFF76CFF2178491E2170FFF7F2
:101D700065FFFFF73DFB002010BD40F2A56010BDE0
:101D80004FF4C87010BD00001000002012000020A9
:101D90001100002010B5094C207801280BD0FFF766
:101DA000CFFC074908600749086001202070FFF751
:101DB00081FA002010BD40F2F51010BD1200002085
:101DC00024000020200000200A68FFF726B94B6895
:101DD0000A461946FFF726B90168814201D1012060
:101DE0007047002070474FF47A72A0FB020110B5D3
:101DF0000023FEF7FFF910BD01F00302891A10B5A8
:101E00000839820702D04FF4487010BD0E4BA1F183
:101E10000C029A4202D340F2213010BD041F007818
:101E200000F00300084320F0020040F00100606071
:101E30002046FFF7E7F92046FFF708FA017902216B
:101E40004160002010BD0000F5FFFF3F2DE9F84F75
:101E50009A46DDE90C76DDE90A9815468B4604467C
:101E6000FFF7ACFAB8BBBCB3B5B3B8F1000F3CD0C8
:101E7000402F3DD3B9F1090F01D03CD803E02046F3
:101E8000FFF792FA48B32046FFF74DFD43461B4A41
:101E9000514628460097FFF719FAC4E9000BC4E938
:101EA000025A84F81190E664C4E90587B6B1266544
:101EB000FFF7C6FE0546002020742046FFF720FCF1
:101EC0002846FFF7BBFEFFF713FF08B1FFF790FAB4
:101ED0000020BDE8F88F05E007E00CE00848006846
:101EE0002065E5E74FF4C870F3E740F24C40F0E7B7
:101EF00040F27370EDE740F26E70EAE721190008D6
:101F00003C00002070B505460C46FFF757FA08BBA9
:101F1000FFF75CFA10B140F2A46070BD55EA04000E
:101F20001BD0FFF78DFE23460D4C06462A4620683F
:101F3000FFF70CFD20B13046FFF780FE652070BD35
:101F40002068FFF757FC3046FFF778FEFFF750FA9E
:101F5000002070BD4FF4C87070BD00F0ADF8F7E719
:101F6000200000202DE9F0410446FFF727FAE0BBEE
:101F7000E4B32046FFF718FA18B140F26C70BDE8E0
:101F8000F0812046FFF72AFA28B1FFF71FFA10B1B7
:101F900040F2A460F3E7FFF753FE0746A06B04F19D
:101FA0003801884209D00E46056804E01838FFF76A
:101FB000C6FA28462D68B042F8D1207C10B92046D8
:101FC000FFF718FC207CC00702D02046FFF7D6FCA4
:101FD000207C800702D52046FFF71EFB2046FFF736
:101FE000A2FC08202074384601E006E008E0FFF774
:101FF00025FEFFF7FDF90020C1E74FF4C870BEE7EA
:1020000001480468B5E70000200000202DE9F047F2
:102010000D46040046D0FFF7D1F9C0BB092D47D2C9
:10202000FFF70EFE8146607CA84233D0A76B04F117
:102030003800874211D00A26804607E0A7F1180031
:10204000FFF7BFFAB04200D206463F684745F5D1D8
:10205000B54202D984F840503546207C810704D52A
:1020600065742046FFF7D1FA14E0C10701D065740A
:1020700010E078B92046FFF7BDFB65742046FFF7F6
:10208000ADF90028204603D0FFF724FB02E00CE066
:10209000FFF736FB4846FFF7D1FDFFF7A9F900200F
:1020A000BDE8F08740F24C40FAE74FF4C870F7E71C
:1020B00040F26E70F4E7000070B5FFF77FF900287A
:1020C00010D1FFF7BDFD084C05462068FFF792FBD5
:1020D0002068FFF715FB2846FFF7B0FDBDE870400C
:1020E000FFF786B970BD00002000002010B5FFF793
:1020F000FFFD00280CD001200021FFF7C5FCFFF7F1
:102100005DFD04480068407CBDE81040FFF7A2BBBD
:1021100010BD00002000002098210008E9110008EF
:102120000000000001000000C800002000040000C2
:10213000000000006000002000000000000000001F
:10214000010203040607080900000000010203045D
:10215000C805002050000000AC210008C11800088C
:102160000000000001000000987300200002000041
:102170000000000030730020B4210008F1180008AE
:1021800000000000010000000076002000020000B6
:1021900000000000987500206170706C69636174C4
:1021A000696F6E5F656E7472790000007461736BA5
:1021B000310000007461736B32000000DC21000804
:1021C000000000205C000000FC0F0008382200081E
:1021D0005C000020A47B00000C100008010000003F
:1021E00010000000000000000024F40000000000C7
:1021F00000000000000000000000000000000000DF
:1022000000000000E80300000000000000000000E3
:10221000340000203400002064000000FFFFFFFFB6
:10222000FFFFFFFF48000020480000205000002072
:08223000500000200000000036
:0400000508000131BD
:00000001FF
